{
  "_format": "hh-sol-artifact-1",
  "contractName": "NFTSimple",
  "sourceName": "contracts/NFTSimple.sol",
  "abi": [
    {
      "inputs": [
        {
          "internalType": "address",
          "name": "_vrfCoordinator",
          "type": "address"
        },
        {
          "internalType": "address",
          "name": "_link",
          "type": "address"
        },
        {
          "internalType": "bytes32",
          "name": "_keyHash",
          "type": "bytes32"
        },
        {
          "internalType": "uint256",
          "name": "_fee",
          "type": "uint256"
        }
      ],
      "stateMutability": "nonpayable",
      "type": "constructor"
    },
    {
      "anonymous": false,
      "inputs": [
        {
          "indexed": true,
          "internalType": "address",
          "name": "owner",
          "type": "address"
        },
        {
          "indexed": true,
          "internalType": "address",
          "name": "approved",
          "type": "address"
        },
        {
          "indexed": true,
          "internalType": "uint256",
          "name": "tokenId",
          "type": "uint256"
        }
      ],
      "name": "Approval",
      "type": "event"
    },
    {
      "anonymous": false,
      "inputs": [
        {
          "indexed": true,
          "internalType": "address",
          "name": "owner",
          "type": "address"
        },
        {
          "indexed": true,
          "internalType": "address",
          "name": "operator",
          "type": "address"
        },
        {
          "indexed": false,
          "internalType": "bool",
          "name": "approved",
          "type": "bool"
        }
      ],
      "name": "ApprovalForAll",
      "type": "event"
    },
    {
      "anonymous": false,
      "inputs": [
        {
          "indexed": true,
          "internalType": "bytes32",
          "name": "requestId",
          "type": "bytes32"
        }
      ],
      "name": "RequestCollectible",
      "type": "event"
    },
    {
      "anonymous": false,
      "inputs": [
        {
          "indexed": true,
          "internalType": "address",
          "name": "from",
          "type": "address"
        },
        {
          "indexed": true,
          "internalType": "address",
          "name": "to",
          "type": "address"
        },
        {
          "indexed": true,
          "internalType": "uint256",
          "name": "tokenId",
          "type": "uint256"
        }
      ],
      "name": "Transfer",
      "type": "event"
    },
    {
      "inputs": [],
      "name": "LinkToken",
      "outputs": [
        {
          "internalType": "address",
          "name": "",
          "type": "address"
        }
      ],
      "stateMutability": "view",
      "type": "function"
    },
    {
      "inputs": [],
      "name": "VRFCoordinator",
      "outputs": [
        {
          "internalType": "address",
          "name": "",
          "type": "address"
        }
      ],
      "stateMutability": "view",
      "type": "function"
    },
    {
      "inputs": [
        {
          "internalType": "address",
          "name": "from",
          "type": "address"
        },
        {
          "internalType": "address",
          "name": "to",
          "type": "address"
        },
        {
          "internalType": "uint256",
          "name": "tokenId",
          "type": "uint256"
        },
        {
          "internalType": "bytes",
          "name": "data",
          "type": "bytes"
        }
      ],
      "name": "_safeTransferFrom",
      "outputs": [],
      "stateMutability": "nonpayable",
      "type": "function"
    },
    {
      "inputs": [
        {
          "internalType": "address",
          "name": "to",
          "type": "address"
        },
        {
          "internalType": "uint256",
          "name": "tokenId",
          "type": "uint256"
        }
      ],
      "name": "approve",
      "outputs": [],
      "stateMutability": "nonpayable",
      "type": "function"
    },
    {
      "inputs": [
        {
          "internalType": "address",
          "name": "owner",
          "type": "address"
        }
      ],
      "name": "balanceOf",
      "outputs": [
        {
          "internalType": "uint256",
          "name": "",
          "type": "uint256"
        }
      ],
      "stateMutability": "view",
      "type": "function"
    },
    {
      "inputs": [],
      "name": "baseURI",
      "outputs": [
        {
          "internalType": "string",
          "name": "",
          "type": "string"
        }
      ],
      "stateMutability": "view",
      "type": "function"
    },
    {
      "inputs": [
        {
          "internalType": "address",
          "name": "to",
          "type": "address"
        },
        {
          "internalType": "uint256",
          "name": "number",
          "type": "uint256"
        }
      ],
      "name": "batchMint",
      "outputs": [],
      "stateMutability": "nonpayable",
      "type": "function"
    },
    {
      "inputs": [
        {
          "internalType": "string",
          "name": "tokenURI",
          "type": "string"
        },
        {
          "internalType": "uint256",
          "name": "userProvidedSeed",
          "type": "uint256"
        }
      ],
      "name": "createCollectible",
      "outputs": [
        {
          "internalType": "bytes32",
          "name": "requestId",
          "type": "bytes32"
        }
      ],
      "stateMutability": "nonpayable",
      "type": "function"
    },
    {
      "inputs": [
        {
          "internalType": "uint256",
          "name": "tokenId",
          "type": "uint256"
        }
      ],
      "name": "getApproved",
      "outputs": [
        {
          "internalType": "address",
          "name": "",
          "type": "address"
        }
      ],
      "stateMutability": "view",
      "type": "function"
    },
    {
      "inputs": [
        {
          "internalType": "uint256",
          "name": "userProvidedSeed",
          "type": "uint256"
        }
      ],
      "name": "getRandomNumber",
      "outputs": [
        {
          "internalType": "bytes32",
          "name": "requestId",
          "type": "bytes32"
        }
      ],
      "stateMutability": "nonpayable",
      "type": "function"
    },
    {
      "inputs": [
        {
          "internalType": "address",
          "name": "owner",
          "type": "address"
        },
        {
          "internalType": "address",
          "name": "operator",
          "type": "address"
        }
      ],
      "name": "isApprovedForAll",
      "outputs": [
        {
          "internalType": "bool",
          "name": "",
          "type": "bool"
        }
      ],
      "stateMutability": "view",
      "type": "function"
    },
    {
      "inputs": [],
      "name": "name",
      "outputs": [
        {
          "internalType": "string",
          "name": "",
          "type": "string"
        }
      ],
      "stateMutability": "view",
      "type": "function"
    },
    {
      "inputs": [
        {
          "internalType": "uint256",
          "name": "tokenId",
          "type": "uint256"
        }
      ],
      "name": "ownerOf",
      "outputs": [
        {
          "internalType": "address",
          "name": "",
          "type": "address"
        }
      ],
      "stateMutability": "view",
      "type": "function"
    },
    {
      "inputs": [
        {
          "internalType": "bytes32",
          "name": "requestId",
          "type": "bytes32"
        },
        {
          "internalType": "uint256",
          "name": "randomness",
          "type": "uint256"
        }
      ],
      "name": "rawFulfillRandomness",
      "outputs": [],
      "stateMutability": "nonpayable",
      "type": "function"
    },
    {
      "inputs": [
        {
          "internalType": "bytes32",
          "name": "",
          "type": "bytes32"
        }
      ],
      "name": "requestIdToSender",
      "outputs": [
        {
          "internalType": "address",
          "name": "",
          "type": "address"
        }
      ],
      "stateMutability": "view",
      "type": "function"
    },
    {
      "inputs": [
        {
          "internalType": "bytes32",
          "name": "",
          "type": "bytes32"
        }
      ],
      "name": "requestIdToTokenURI",
      "outputs": [
        {
          "internalType": "string",
          "name": "",
          "type": "string"
        }
      ],
      "stateMutability": "view",
      "type": "function"
    },
    {
      "inputs": [
        {
          "internalType": "address",
          "name": "from",
          "type": "address"
        },
        {
          "internalType": "address",
          "name": "to",
          "type": "address"
        },
        {
          "internalType": "uint256",
          "name": "tokenId",
          "type": "uint256"
        }
      ],
      "name": "safeTransferFrom",
      "outputs": [],
      "stateMutability": "nonpayable",
      "type": "function"
    },
    {
      "inputs": [
        {
          "internalType": "address",
          "name": "from",
          "type": "address"
        },
        {
          "internalType": "address",
          "name": "to",
          "type": "address"
        },
        {
          "internalType": "uint256",
          "name": "tokenId",
          "type": "uint256"
        },
        {
          "internalType": "bytes",
          "name": "_data",
          "type": "bytes"
        }
      ],
      "name": "safeTransferFrom",
      "outputs": [],
      "stateMutability": "nonpayable",
      "type": "function"
    },
    {
      "inputs": [
        {
          "internalType": "address",
          "name": "operator",
          "type": "address"
        },
        {
          "internalType": "bool",
          "name": "approved",
          "type": "bool"
        }
      ],
      "name": "setApprovalForAll",
      "outputs": [],
      "stateMutability": "nonpayable",
      "type": "function"
    },
    {
      "inputs": [
        {
          "internalType": "bytes4",
          "name": "interfaceId",
          "type": "bytes4"
        }
      ],
      "name": "supportsInterface",
      "outputs": [
        {
          "internalType": "bool",
          "name": "",
          "type": "bool"
        }
      ],
      "stateMutability": "view",
      "type": "function"
    },
    {
      "inputs": [],
      "name": "symbol",
      "outputs": [
        {
          "internalType": "string",
          "name": "",
          "type": "string"
        }
      ],
      "stateMutability": "view",
      "type": "function"
    },
    {
      "inputs": [
        {
          "internalType": "uint256",
          "name": "index",
          "type": "uint256"
        }
      ],
      "name": "tokenByIndex",
      "outputs": [
        {
          "internalType": "uint256",
          "name": "",
          "type": "uint256"
        }
      ],
      "stateMutability": "view",
      "type": "function"
    },
    {
      "inputs": [],
      "name": "tokenCounter",
      "outputs": [
        {
          "internalType": "uint256",
          "name": "",
          "type": "uint256"
        }
      ],
      "stateMutability": "view",
      "type": "function"
    },
    {
      "inputs": [
        {
          "internalType": "address",
          "name": "owner",
          "type": "address"
        },
        {
          "internalType": "uint256",
          "name": "index",
          "type": "uint256"
        }
      ],
      "name": "tokenOfOwnerByIndex",
      "outputs": [
        {
          "internalType": "uint256",
          "name": "",
          "type": "uint256"
        }
      ],
      "stateMutability": "view",
      "type": "function"
    },
    {
      "inputs": [
        {
          "internalType": "uint256",
          "name": "tokenId",
          "type": "uint256"
        }
      ],
      "name": "tokenURI",
      "outputs": [
        {
          "internalType": "string",
          "name": "",
          "type": "string"
        }
      ],
      "stateMutability": "view",
      "type": "function"
    },
    {
      "inputs": [],
      "name": "totalSupply",
      "outputs": [
        {
          "internalType": "uint256",
          "name": "",
          "type": "uint256"
        }
      ],
      "stateMutability": "view",
      "type": "function"
    },
    {
      "inputs": [
        {
          "internalType": "address",
          "name": "from",
          "type": "address"
        },
        {
          "internalType": "address",
          "name": "to",
          "type": "address"
        },
        {
          "internalType": "uint256",
          "name": "tokenId",
          "type": "uint256"
        }
      ],
      "name": "transferFrom",
      "outputs": [],
      "stateMutability": "nonpayable",
      "type": "function"
    }
  ],
  "bytecode": "0x60c06040523480156200001157600080fd5b5060405162003cfd38038062003cfd833981810160405260808110156200003757600080fd5b81019080805190602001909291908051906020019092919080519060200190929190805190602001909291905050506040518060400160405280600681526020017f446f6767696500000000000000000000000000000000000000000000000000008152506040518060400160405280600381526020017f446f67000000000000000000000000000000000000000000000000000000000081525085858173ffffffffffffffffffffffffffffffffffffffff1660a08173ffffffffffffffffffffffffffffffffffffffff1660601b815250508073ffffffffffffffffffffffffffffffffffffffff1660808173ffffffffffffffffffffffffffffffffffffffff1660601b8152505050506200015c6301ffc9a760e01b620001f860201b60201c565b81600790805190602001906200017492919062000301565b5080600890805190602001906200018d92919062000301565b50620001a66380ac58cd60e01b620001f860201b60201c565b620001be635b5e139f60e01b620001f860201b60201c565b620001d663780e9d6360e01b620001f860201b60201c565b50506000600f8190555081600b8190555080600c8190555050505050620003b0565b63ffffffff60e01b817bffffffffffffffffffffffffffffffffffffffffffffffffffffffff1916141562000295576040517f08c379a000000000000000000000000000000000000000000000000000000000815260040180806020018281038252601c8152602001807f4552433136353a20696e76616c696420696e746572666163652069640000000081525060200191505060405180910390fd5b6001806000837bffffffffffffffffffffffffffffffffffffffffffffffffffffffff19167bffffffffffffffffffffffffffffffffffffffffffffffffffffffff1916815260200190815260200160002060006101000a81548160ff02191690831515021790555050565b828054600181600116156101000203166002900490600052602060002090601f016020900481019282601f106200034457805160ff191683800117855562000375565b8280016001018555821562000375579182015b828111156200037457825182559160200191906001019062000357565b5b50905062000384919062000388565b5090565b620003ad91905b80821115620003a95760008160009055506001016200038f565b5090565b90565b60805160601c60a05160601c61391e620003df600039806116055280611e5a525080611e1e525061391e6000f3fe608060405234801561001057600080fd5b50600436106101a95760003560e01c80634f6ccce7116100f957806395d89b4111610097578063b88d4fde11610071578063b88d4fde14610b5b578063c87b56dd14610c60578063d082e38114610d07578063e985e9c514610d25576101a9565b806395d89b4114610a46578063a22cb46514610ac9578063b37217a414610b19576101a9565b806366a3de2a116100d357806366a3de2a1461082e5780636c0360eb1461093357806370a08231146109b657806394985ddd14610a0e576101a9565b80634f6ccce7146107345780634f8e2fdf146107765780636352211e146107c0576101a9565b8063219c0eee1161016657806333b608631161014057806333b608631461058757806342842e0e146105d157806343508b051461063f5780634372441a1461068d576101a9565b8063219c0eee1461044957806323b872dd146104b75780632f745c5914610525576101a9565b806301ffc9a7146101ae57806306fdde0314610213578063081812fc14610296578063095ea7b31461030457806318160ddd146103525780631f061a2914610370575b600080fd5b6101f9600480360360208110156101c457600080fd5b8101908080357bffffffffffffffffffffffffffffffffffffffffffffffffffffffff19169060200190929190505050610da1565b604051808215151515815260200191505060405180910390f35b61021b610e09565b6040518080602001828103825283818151815260200191508051906020019080838360005b8381101561025b578082015181840152602081019050610240565b50505050905090810190601f1680156102885780820380516001836020036101000a031916815260200191505b509250505060405180910390f35b6102c2600480360360208110156102ac57600080fd5b8101908080359060200190929190505050610eab565b604051808273ffffffffffffffffffffffffffffffffffffffff1673ffffffffffffffffffffffffffffffffffffffff16815260200191505060405180910390f35b6103506004803603604081101561031a57600080fd5b81019080803573ffffffffffffffffffffffffffffffffffffffff16906020019092919080359060200190929190505050610f46565b005b61035a61108a565b6040518082815260200191505060405180910390f35b6104336004803603604081101561038657600080fd5b81019080803590602001906401000000008111156103a357600080fd5b8201836020820111156103b557600080fd5b803590602001918460018302840111640100000000831117156103d757600080fd5b91908080601f016020809104026020016040519081016040528093929190818152602001838380828437600081840152601f19601f8201169050808301925050505050505091929192908035906020019092919050505061109b565b6040518082815260200191505060405180910390f35b6104756004803603602081101561045f57600080fd5b810190808035906020019092919050505061115b565b604051808273ffffffffffffffffffffffffffffffffffffffff1673ffffffffffffffffffffffffffffffffffffffff16815260200191505060405180910390f35b610523600480360360608110156104cd57600080fd5b81019080803573ffffffffffffffffffffffffffffffffffffffff169060200190929190803573ffffffffffffffffffffffffffffffffffffffff1690602001909291908035906020019092919050505061118e565b005b6105716004803603604081101561053b57600080fd5b81019080803573ffffffffffffffffffffffffffffffffffffffff16906020019092919080359060200190929190505050611204565b6040518082815260200191505060405180910390f35b61058f61125f565b604051808273ffffffffffffffffffffffffffffffffffffffff1673ffffffffffffffffffffffffffffffffffffffff16815260200191505060405180910390f35b61063d600480360360608110156105e757600080fd5b81019080803573ffffffffffffffffffffffffffffffffffffffff169060200190929190803573ffffffffffffffffffffffffffffffffffffffff16906020019092919080359060200190929190505050611285565b005b61068b6004803603604081101561065557600080fd5b81019080803573ffffffffffffffffffffffffffffffffffffffff169060200190929190803590602001909291905050506112a5565b005b6106b9600480360360208110156106a357600080fd5b8101908080359060200190929190505050611341565b6040518080602001828103825283818151815260200191508051906020019080838360005b838110156106f95780820151818401526020810190506106de565b50505050905090810190601f1680156107265780820380516001836020036101000a031916815260200191505b509250505060405180910390f35b6107606004803603602081101561074a57600080fd5b81019080803590602001909291905050506113f1565b6040518082815260200191505060405180910390f35b61077e61141d565b604051808273ffffffffffffffffffffffffffffffffffffffff1673ffffffffffffffffffffffffffffffffffffffff16815260200191505060405180910390f35b6107ec600480360360208110156107d657600080fd5b8101908080359060200190929190505050611443565b604051808273ffffffffffffffffffffffffffffffffffffffff1673ffffffffffffffffffffffffffffffffffffffff16815260200191505060405180910390f35b6109316004803603608081101561084457600080fd5b81019080803573ffffffffffffffffffffffffffffffffffffffff169060200190929190803573ffffffffffffffffffffffffffffffffffffffff16906020019092919080359060200190929190803590602001906401000000008111156108ab57600080fd5b8201836020820111156108bd57600080fd5b803590602001918460018302840111640100000000831117156108df57600080fd5b91908080601f016020809104026020016040519081016040528093929190818152602001838380828437600081840152601f19601f82011690508083019250505050505050919291929050505061147a565b005b61093b61148c565b6040518080602001828103825283818151815260200191508051906020019080838360005b8381101561097b578082015181840152602081019050610960565b50505050905090810190601f1680156109a85780820380516001836020036101000a031916815260200191505b509250505060405180910390f35b6109f8600480360360208110156109cc57600080fd5b81019080803573ffffffffffffffffffffffffffffffffffffffff16906020019092919050505061152e565b6040518082815260200191505060405180910390f35b610a4460048036036040811015610a2457600080fd5b810190808035906020019092919080359060200190929190505050611603565b005b610a4e6116d2565b6040518080602001828103825283818151815260200191508051906020019080838360005b83811015610a8e578082015181840152602081019050610a73565b50505050905090810190601f168015610abb5780820380516001836020036101000a031916815260200191505b509250505060405180910390f35b610b1760048036036040811015610adf57600080fd5b81019080803573ffffffffffffffffffffffffffffffffffffffff169060200190929190803515159060200190929190505050611774565b005b610b4560048036036020811015610b2f57600080fd5b810190808035906020019092919050505061192c565b6040518082815260200191505060405180910390f35b610c5e60048036036080811015610b7157600080fd5b81019080803573ffffffffffffffffffffffffffffffffffffffff169060200190929190803573ffffffffffffffffffffffffffffffffffffffff1690602001909291908035906020019092919080359060200190640100000000811115610bd857600080fd5b820183602082011115610bea57600080fd5b80359060200191846001830284011164010000000083111715610c0c57600080fd5b91908080601f016020809104026020016040519081016040528093929190818152602001838380828437600081840152601f19601f820116905080830192505050505050509192919290505050611944565b005b610c8c60048036036020811015610c7657600080fd5b81019080803590602001909291905050506119bc565b6040518080602001828103825283818151815260200191508051906020019080838360005b83811015610ccc578082015181840152602081019050610cb1565b50505050905090810190601f168015610cf95780820380516001836020036101000a031916815260200191505b509250505060405180910390f35b610d0f611c8d565b6040518082815260200191505060405180910390f35b610d8760048036036040811015610d3b57600080fd5b81019080803573ffffffffffffffffffffffffffffffffffffffff169060200190929190803573ffffffffffffffffffffffffffffffffffffffff169060200190929190505050611c93565b604051808215151515815260200191505060405180910390f35b600060016000837bffffffffffffffffffffffffffffffffffffffffffffffffffffffff19167bffffffffffffffffffffffffffffffffffffffffffffffffffffffff1916815260200190815260200160002060009054906101000a900460ff169050919050565b606060078054600181600116156101000203166002900480601f016020809104026020016040519081016040528092919081815260200182805460018160011615610100020316600290048015610ea15780601f10610e7657610100808354040283529160200191610ea1565b820191906000526020600020905b815481529060010190602001808311610e8457829003601f168201915b5050505050905090565b6000610eb682611d27565b610f0b576040517f08c379a000000000000000000000000000000000000000000000000000000000815260040180806020018281038252602c8152602001806137e7602c913960400191505060405180910390fd5b6005600083815260200190815260200160002060009054906101000a900473ffffffffffffffffffffffffffffffffffffffff169050919050565b6000610f5182611443565b90508073ffffffffffffffffffffffffffffffffffffffff168373ffffffffffffffffffffffffffffffffffffffff161415610fd8576040517f08c379a00000000000000000000000000000000000000000000000000000000081526004018080602001828103825260218152602001806138976021913960400191505060405180910390fd5b8073ffffffffffffffffffffffffffffffffffffffff16610ff7611d44565b73ffffffffffffffffffffffffffffffffffffffff161480611026575061102581611020611d44565b611c93565b5b61107b576040517f08c379a000000000000000000000000000000000000000000000000000000000815260040180806020018281038252603881526020018061373a6038913960400191505060405180910390fd5b6110858383611d4c565b505050565b60006110966003611e05565b905090565b60006110ac600b54600c5484611e1a565b9050336010600083815260200190815260200160002060006101000a81548173ffffffffffffffffffffffffffffffffffffffff021916908373ffffffffffffffffffffffffffffffffffffffff160217905550826011600083815260200190815260200160002090805190602001906111279291906135ca565b50807f6cd153b5b53302ec9e2c181348ad2070ff9ca49f5314d13480c811d74b2db85860405160405180910390a292915050565b60106020528060005260406000206000915054906101000a900473ffffffffffffffffffffffffffffffffffffffff1681565b61119f611199611d44565b82612025565b6111f4576040517f08c379a00000000000000000000000000000000000000000000000000000000081526004018080602001828103825260318152602001806138b86031913960400191505060405180910390fd5b6111ff838383612119565b505050565b600061125782600260008673ffffffffffffffffffffffffffffffffffffffff1673ffffffffffffffffffffffffffffffffffffffff16815260200190815260200160002061235c90919063ffffffff16565b905092915050565b600d60009054906101000a900473ffffffffffffffffffffffffffffffffffffffff1681565b6112a083838360405180602001604052806000815250611944565b505050565b60006001430340905060008133604051602001808381526020018273ffffffffffffffffffffffffffffffffffffffff1673ffffffffffffffffffffffffffffffffffffffff1660601b8152601401925050506040516020818303038152906040528051906020012060001c905060008090505b8381101561133a5761132d85828401612376565b8080600101915050611319565b5050505050565b60116020528060005260406000206000915090508054600181600116156101000203166002900480601f0160208091040260200160405190810160405280929190818152602001828054600181600116156101000203166002900480156113e95780601f106113be576101008083540402835291602001916113e9565b820191906000526020600020905b8154815290600101906020018083116113cc57829003601f168201915b505050505081565b60008061140883600361239490919063ffffffff16565b509050611414816123c3565b80915050919050565b600e60009054906101000a900473ffffffffffffffffffffffffffffffffffffffff1681565b60006114738260405180606001604052806029815260200161379c60299139600361245c9092919063ffffffff16565b9050919050565b61148684848484611944565b50505050565b6060600a8054600181600116156101000203166002900480601f0160208091040260200160405190810160405280929190818152602001828054600181600116156101000203166002900480156115245780601f106114f957610100808354040283529160200191611524565b820191906000526020600020905b81548152906001019060200180831161150757829003601f168201915b5050505050905090565b60008073ffffffffffffffffffffffffffffffffffffffff168273ffffffffffffffffffffffffffffffffffffffff1614156115b5576040517f08c379a000000000000000000000000000000000000000000000000000000000815260040180806020018281038252602a815260200180613772602a913960400191505060405180910390fd5b6115fc600260008473ffffffffffffffffffffffffffffffffffffffff1673ffffffffffffffffffffffffffffffffffffffff16815260200190815260200160002061247b565b9050919050565b7f000000000000000000000000000000000000000000000000000000000000000073ffffffffffffffffffffffffffffffffffffffff163373ffffffffffffffffffffffffffffffffffffffff16146116c4576040517f08c379a000000000000000000000000000000000000000000000000000000000815260040180806020018281038252601f8152602001807f4f6e6c7920565246436f6f7264696e61746f722063616e2066756c66696c6c0081525060200191505060405180910390fd5b6116ce8282612490565b5050565b606060088054600181600116156101000203166002900480601f01602080910402602001604051908101604052809291908181526020018280546001816001161561010002031660029004801561176a5780601f1061173f5761010080835404028352916020019161176a565b820191906000526020600020905b81548152906001019060200180831161174d57829003601f168201915b5050505050905090565b61177c611d44565b73ffffffffffffffffffffffffffffffffffffffff168273ffffffffffffffffffffffffffffffffffffffff16141561181d576040517f08c379a00000000000000000000000000000000000000000000000000000000081526004018080602001828103825260198152602001807f4552433732313a20617070726f766520746f2063616c6c65720000000000000081525060200191505060405180910390fd5b806006600061182a611d44565b73ffffffffffffffffffffffffffffffffffffffff1673ffffffffffffffffffffffffffffffffffffffff16815260200190815260200160002060008473ffffffffffffffffffffffffffffffffffffffff1673ffffffffffffffffffffffffffffffffffffffff16815260200190815260200160002060006101000a81548160ff0219169083151502179055508173ffffffffffffffffffffffffffffffffffffffff166118d7611d44565b73ffffffffffffffffffffffffffffffffffffffff167f17307eab39ab6107e8899845ad3d59bd9653f200f220920489ca2b5937696c3183604051808215151515815260200191505060405180910390a35050565b600061193d600b54600c5484611e1a565b9050919050565b61195561194f611d44565b83612025565b6119aa576040517f08c379a00000000000000000000000000000000000000000000000000000000081526004018080602001828103825260318152602001806138b86031913960400191505060405180910390fd5b6119b6848484846125a3565b50505050565b60606119c782611d27565b611a1c576040517f08c379a000000000000000000000000000000000000000000000000000000000815260040180806020018281038252602f815260200180613868602f913960400191505060405180910390fd5b6060600960008481526020019081526020016000208054600181600116156101000203166002900480601f016020809104026020016040519081016040528092919081815260200182805460018160011615610100020316600290048015611ac55780601f10611a9a57610100808354040283529160200191611ac5565b820191906000526020600020905b815481529060010190602001808311611aa857829003601f168201915b505050505090506060611ad661148c565b9050600081511415611aec578192505050611c88565b600082511115611bbd5780826040516020018083805190602001908083835b60208310611b2e5780518252602082019150602081019050602083039250611b0b565b6001836020036101000a03801982511681845116808217855250505050505090500182805190602001908083835b60208310611b7f5780518252602082019150602081019050602083039250611b5c565b6001836020036101000a0380198251168184511680821785525050505050509050019250505060405160208183030381529060405292505050611c88565b80611bc785612615565b6040516020018083805190602001908083835b60208310611bfd5780518252602082019150602081019050602083039250611bda565b6001836020036101000a03801982511681845116808217855250505050505090500182805190602001908083835b60208310611c4e5780518252602082019150602081019050602083039250611c2b565b6001836020036101000a03801982511681845116808217855250505050505090500192505050604051602081830303815290604052925050505b919050565b600f5481565b6000600660008473ffffffffffffffffffffffffffffffffffffffff1673ffffffffffffffffffffffffffffffffffffffff16815260200190815260200160002060008373ffffffffffffffffffffffffffffffffffffffff1673ffffffffffffffffffffffffffffffffffffffff16815260200190815260200160002060009054906101000a900460ff16905092915050565b6000611d3d82600361275c90919063ffffffff16565b9050919050565b600033905090565b816005600083815260200190815260200160002060006101000a81548173ffffffffffffffffffffffffffffffffffffffff021916908373ffffffffffffffffffffffffffffffffffffffff160217905550808273ffffffffffffffffffffffffffffffffffffffff16611dbf83611443565b73ffffffffffffffffffffffffffffffffffffffff167f8c5be1e5ebec7d5bd14f71427d1e84f3dd0314c0f7b2291e5b200ac8c7c3b92560405160405180910390a45050565b6000611e1382600001612776565b9050919050565b60007f000000000000000000000000000000000000000000000000000000000000000073ffffffffffffffffffffffffffffffffffffffff16634000aea07f000000000000000000000000000000000000000000000000000000000000000085878660405160200180838152602001828152602001925050506040516020818303038152906040526040518463ffffffff1660e01b8152600401808473ffffffffffffffffffffffffffffffffffffffff1673ffffffffffffffffffffffffffffffffffffffff16815260200183815260200180602001828103825283818151815260200191508051906020019080838360005b83811015611f29578082015181840152602081019050611f0e565b50505050905090810190601f168015611f565780820380516001836020036101000a031916815260200191505b50945050505050602060405180830381600087803b158015611f7757600080fd5b505af1158015611f8b573d6000803e3d6000fd5b505050506040513d6020811015611fa157600080fd5b8101908080519060200190929190505050506000611fd38584306000808a815260200190815260200160002054612787565b9050611ffb60016000808881526020019081526020016000205461280190919063ffffffff16565b6000808781526020019081526020016000208190555061201b8582612889565b9150509392505050565b600061203082611d27565b612085576040517f08c379a000000000000000000000000000000000000000000000000000000000815260040180806020018281038252602c81526020018061370e602c913960400191505060405180910390fd5b600061209083611443565b90508073ffffffffffffffffffffffffffffffffffffffff168473ffffffffffffffffffffffffffffffffffffffff1614806120ff57508373ffffffffffffffffffffffffffffffffffffffff166120e784610eab565b73ffffffffffffffffffffffffffffffffffffffff16145b80612110575061210f8185611c93565b5b91505092915050565b8273ffffffffffffffffffffffffffffffffffffffff1661213982611443565b73ffffffffffffffffffffffffffffffffffffffff16146121a5576040517f08c379a000000000000000000000000000000000000000000000000000000000815260040180806020018281038252602981526020018061383f6029913960400191505060405180910390fd5b600073ffffffffffffffffffffffffffffffffffffffff168273ffffffffffffffffffffffffffffffffffffffff16141561222b576040517f08c379a00000000000000000000000000000000000000000000000000000000081526004018080602001828103825260248152602001806136c46024913960400191505060405180910390fd5b6122368383836128c2565b612241600082611d4c565b61229281600260008673ffffffffffffffffffffffffffffffffffffffff1673ffffffffffffffffffffffffffffffffffffffff1681526020019081526020016000206128c790919063ffffffff16565b506122e481600260008573ffffffffffffffffffffffffffffffffffffffff1673ffffffffffffffffffffffffffffffffffffffff1681526020019081526020016000206128e190919063ffffffff16565b506122fb818360036128fb9092919063ffffffff16565b50808273ffffffffffffffffffffffffffffffffffffffff168473ffffffffffffffffffffffffffffffffffffffff167fddf252ad1be2c89b69c2b068fc378daa952ba7f163c4a11628f55a4df523b3ef60405160405180910390a4505050565b600061236b8360000183612930565b60001c905092915050565b6123908282604051806020016040528060008152506129b3565b5050565b6000806000806123a78660000186612a24565b915091508160001c8160001c8090509350935050509250929050565b61245981604051602401808281526020019150506040516020818303038152906040527ff5b1bba9000000000000000000000000000000000000000000000000000000007bffffffffffffffffffffffffffffffffffffffffffffffffffffffff19166020820180517bffffffffffffffffffffffffffffffffffffffffffffffffffffffff8381831617835250505050612abd565b50565b600061246f846000018460001b84612ae6565b60001c90509392505050565b600061248982600001612bdc565b9050919050565b612499816123c3565b60006010600084815260200190815260200160002060009054906101000a900473ffffffffffffffffffffffffffffffffffffffff1690506060601160008581526020019081526020016000208054600181600116156101000203166002900480601f01602080910402602001604051908101604052809291908181526020018280546001816001161561010002031660029004801561257a5780601f1061254f5761010080835404028352916020019161257a565b820191906000526020600020905b81548152906001019060200180831161255d57829003601f168201915b505050505090506000600f5490506125928382612376565b61259c8183612bed565b5050505050565b6125ae848484612119565b6125ba84848484612c77565b61260f576040517f08c379a00000000000000000000000000000000000000000000000000000000081526004018080602001828103825260328152602001806136926032913960400191505060405180910390fd5b50505050565b6060600082141561265d576040518060400160405280600181526020017f30000000000000000000000000000000000000000000000000000000000000008152509050612757565b600082905060005b60008214612687578080600101915050600a828161267f57fe5b049150612665565b60608167ffffffffffffffff811180156126a057600080fd5b506040519080825280601f01601f1916602001820160405280156126d35781602001600182028036833780820191505090505b50905060006001830390508593505b6000841461274f57600a84816126f457fe5b0660300160f81b8282806001900393508151811061270e57fe5b60200101907effffffffffffffffffffffffffffffffffffffffffffffffffffffffffffff1916908160001a905350600a848161274757fe5b0493506126e2565b819450505050505b919050565b600061276e836000018360001b612ebc565b905092915050565b600081600001805490509050919050565b600084848484604051602001808581526020018481526020018373ffffffffffffffffffffffffffffffffffffffff1673ffffffffffffffffffffffffffffffffffffffff1681526020018281526020019450505050506040516020818303038152906040528051906020012060001c9050949350505050565b60008082840190508381101561287f576040517f08c379a000000000000000000000000000000000000000000000000000000000815260040180806020018281038252601b8152602001807f536166654d6174683a206164646974696f6e206f766572666c6f77000000000081525060200191505060405180910390fd5b8091505092915050565b60008282604051602001808381526020018281526020019250505060405160208183030381529060405280519060200120905092915050565b505050565b60006128d9836000018360001b612edf565b905092915050565b60006128f3836000018360001b612fc7565b905092915050565b6000612927846000018460001b8473ffffffffffffffffffffffffffffffffffffffff1660001b613037565b90509392505050565b600081836000018054905011612991576040517f08c379a00000000000000000000000000000000000000000000000000000000081526004018080602001828103825260228152602001806136706022913960400191505060405180910390fd5b8260000182815481106129a057fe5b9060005260206000200154905092915050565b6129bd8383613113565b6129ca6000848484612c77565b612a1f576040517f08c379a00000000000000000000000000000000000000000000000000000000081526004018080602001828103825260328152602001806136926032913960400191505060405180910390fd5b505050565b60008082846000018054905011612a86576040517f08c379a00000000000000000000000000000000000000000000000000000000081526004018080602001828103825260228152602001806137c56022913960400191505060405180910390fd5b6000846000018481548110612a9757fe5b906000526020600020906002020190508060000154816001015492509250509250929050565b60008151905060006a636f6e736f6c652e6c6f679050602083016000808483855afa5050505050565b60008084600101600085815260200190815260200160002054905060008114158390612bad576040517f08c379a00000000000000000000000000000000000000000000000000000000081526004018080602001828103825283818151815260200191508051906020019080838360005b83811015612b72578082015181840152602081019050612b57565b50505050905090810190601f168015612b9f5780820380516001836020036101000a031916815260200191505b509250505060405180910390fd5b50846000016001820381548110612bc057fe5b9060005260206000209060020201600101549150509392505050565b600081600001805490509050919050565b612bf682611d27565b612c4b576040517f08c379a000000000000000000000000000000000000000000000000000000000815260040180806020018281038252602c815260200180613813602c913960400191505060405180910390fd5b80600960008481526020019081526020016000209080519060200190612c729291906135ca565b505050565b6000612c988473ffffffffffffffffffffffffffffffffffffffff16613307565b612ca55760019050612eb4565b6060612e3b63150b7a0260e01b612cba611d44565b888787604051602401808573ffffffffffffffffffffffffffffffffffffffff1673ffffffffffffffffffffffffffffffffffffffff1681526020018473ffffffffffffffffffffffffffffffffffffffff1673ffffffffffffffffffffffffffffffffffffffff16815260200183815260200180602001828103825283818151815260200191508051906020019080838360005b83811015612d6a578082015181840152602081019050612d4f565b50505050905090810190601f168015612d975780820380516001836020036101000a031916815260200191505b5095505050505050604051602081830303815290604052907bffffffffffffffffffffffffffffffffffffffffffffffffffffffff19166020820180517bffffffffffffffffffffffffffffffffffffffffffffffffffffffff8381831617835250505050604051806060016040528060328152602001613692603291398773ffffffffffffffffffffffffffffffffffffffff1661331a9092919063ffffffff16565b90506000818060200190516020811015612e5457600080fd5b8101908080519060200190929190505050905063150b7a0260e01b7bffffffffffffffffffffffffffffffffffffffffffffffffffffffff1916817bffffffffffffffffffffffffffffffffffffffffffffffffffffffff191614925050505b949350505050565b600080836001016000848152602001908152602001600020541415905092915050565b60008083600101600084815260200190815260200160002054905060008114612fbb5760006001820390506000600186600001805490500390506000866000018281548110612f2a57fe5b9060005260206000200154905080876000018481548110612f4757fe5b9060005260206000200181905550600183018760010160008381526020019081526020016000208190555086600001805480612f7f57fe5b60019003818190600052602060002001600090559055866001016000878152602001908152602001600020600090556001945050505050612fc1565b60009150505b92915050565b6000612fd38383613332565b61302c578260000182908060018154018082558091505060019003906000526020600020016000909190919091505582600001805490508360010160008481526020019081526020016000208190555060019050613031565b600090505b92915050565b60008084600101600085815260200190815260200160002054905060008114156130de5784600001604051806040016040528086815260200185815250908060018154018082558091505060019003906000526020600020906002020160009091909190915060008201518160000155602082015181600101555050846000018054905085600101600086815260200190815260200160002081905550600191505061310c565b828560000160018303815481106130f157fe5b90600052602060002090600202016001018190555060009150505b9392505050565b600073ffffffffffffffffffffffffffffffffffffffff168273ffffffffffffffffffffffffffffffffffffffff1614156131b6576040517f08c379a00000000000000000000000000000000000000000000000000000000081526004018080602001828103825260208152602001807f4552433732313a206d696e7420746f20746865207a65726f206164647265737381525060200191505060405180910390fd5b6131bf81611d27565b15613232576040517f08c379a000000000000000000000000000000000000000000000000000000000815260040180806020018281038252601c8152602001807f4552433732313a20746f6b656e20616c7265616479206d696e7465640000000081525060200191505060405180910390fd5b61323e600083836128c2565b61328f81600260008573ffffffffffffffffffffffffffffffffffffffff1673ffffffffffffffffffffffffffffffffffffffff1681526020019081526020016000206128e190919063ffffffff16565b506132a6818360036128fb9092919063ffffffff16565b50808273ffffffffffffffffffffffffffffffffffffffff16600073ffffffffffffffffffffffffffffffffffffffff167fddf252ad1be2c89b69c2b068fc378daa952ba7f163c4a11628f55a4df523b3ef60405160405180910390a45050565b600080823b905060008111915050919050565b60606133298484600085613355565b90509392505050565b600080836001016000848152602001908152602001600020541415905092915050565b6060824710156133b0576040517f08c379a00000000000000000000000000000000000000000000000000000000081526004018080602001828103825260268152602001806136e86026913960400191505060405180910390fd5b6133b985613307565b61342b576040517f08c379a000000000000000000000000000000000000000000000000000000000815260040180806020018281038252601d8152602001807f416464726573733a2063616c6c20746f206e6f6e2d636f6e747261637400000081525060200191505060405180910390fd5b600060608673ffffffffffffffffffffffffffffffffffffffff1685876040518082805190602001908083835b6020831061347b5780518252602082019150602081019050602083039250613458565b6001836020036101000a03801982511681845116808217855250505050505090500191505060006040518083038185875af1925050503d80600081146134dd576040519150601f19603f3d011682016040523d82523d6000602084013e6134e2565b606091505b50915091506134f28282866134fe565b92505050949350505050565b6060831561350e578290506135c3565b6000835111156135215782518084602001fd5b816040517f08c379a00000000000000000000000000000000000000000000000000000000081526004018080602001828103825283818151815260200191508051906020019080838360005b8381101561358857808201518184015260208101905061356d565b50505050905090810190601f1680156135b55780820380516001836020036101000a031916815260200191505b509250505060405180910390fd5b9392505050565b828054600181600116156101000203166002900490600052602060002090601f016020900481019282601f1061360b57805160ff1916838001178555613639565b82800160010185558215613639579182015b8281111561363857825182559160200191906001019061361d565b5b509050613646919061364a565b5090565b61366c91905b80821115613668576000816000905550600101613650565b5090565b9056fe456e756d657261626c655365743a20696e646578206f7574206f6620626f756e64734552433732313a207472616e7366657220746f206e6f6e20455243373231526563656976657220696d706c656d656e7465724552433732313a207472616e7366657220746f20746865207a65726f2061646472657373416464726573733a20696e73756666696369656e742062616c616e636520666f722063616c6c4552433732313a206f70657261746f7220717565727920666f72206e6f6e6578697374656e7420746f6b656e4552433732313a20617070726f76652063616c6c6572206973206e6f74206f776e6572206e6f7220617070726f76656420666f7220616c6c4552433732313a2062616c616e636520717565727920666f7220746865207a65726f20616464726573734552433732313a206f776e657220717565727920666f72206e6f6e6578697374656e7420746f6b656e456e756d657261626c654d61703a20696e646578206f7574206f6620626f756e64734552433732313a20617070726f76656420717565727920666f72206e6f6e6578697374656e7420746f6b656e4552433732314d657461646174613a2055524920736574206f66206e6f6e6578697374656e7420746f6b656e4552433732313a207472616e73666572206f6620746f6b656e2074686174206973206e6f74206f776e4552433732314d657461646174613a2055524920717565727920666f72206e6f6e6578697374656e7420746f6b656e4552433732313a20617070726f76616c20746f2063757272656e74206f776e65724552433732313a207472616e736665722063616c6c6572206973206e6f74206f776e6572206e6f7220617070726f766564a2646970667358221220a3f21c9fb26d727a5068374bbbb75bff9df06e5d05bc2b8d47474c6174a3742b64736f6c63430006060033",
  "linkReferences": {},
  "deployedLinkReferences": {}
}